{
  "contractName": "KriptotrackersCrowdsale",
  "abi": [
    {
      "constant": true,
      "inputs": [],
      "name": "tokenSaleTokens",
      "outputs": [
        {
          "name": "",
          "type": "uint256"
        }
      ],
      "payable": false,
      "stateMutability": "view",
      "type": "function",
      "signature": "0x0c445f8c"
    },
    {
      "constant": false,
      "inputs": [
        {
          "name": "account",
          "type": "address"
        }
      ],
      "name": "addWhitelisted",
      "outputs": [],
      "payable": false,
      "stateMutability": "nonpayable",
      "type": "function",
      "signature": "0x10154bad"
    },
    {
      "constant": true,
      "inputs": [],
      "name": "hasClosed",
      "outputs": [
        {
          "name": "",
          "type": "bool"
        }
      ],
      "payable": false,
      "stateMutability": "view",
      "type": "function",
      "signature": "0x1515bc2b"
    },
    {
      "constant": true,
      "inputs": [],
      "name": "bountiesTokens",
      "outputs": [
        {
          "name": "",
          "type": "uint256"
        }
      ],
      "payable": false,
      "stateMutability": "view",
      "type": "function",
      "signature": "0x26ae8b77"
    },
    {
      "constant": false,
      "inputs": [
        {
          "name": "account",
          "type": "address"
        }
      ],
      "name": "removeWhitelisted",
      "outputs": [],
      "payable": false,
      "stateMutability": "nonpayable",
      "type": "function",
      "signature": "0x291d9549"
    },
    {
      "constant": true,
      "inputs": [],
      "name": "cap",
      "outputs": [
        {
          "name": "",
          "type": "uint256"
        }
      ],
      "payable": false,
      "stateMutability": "view",
      "type": "function",
      "signature": "0x355274ea"
    },
    {
      "constant": true,
      "inputs": [
        {
          "name": "account",
          "type": "address"
        }
      ],
      "name": "isWhitelisted",
      "outputs": [
        {
          "name": "",
          "type": "bool"
        }
      ],
      "payable": false,
      "stateMutability": "view",
      "type": "function",
      "signature": "0x3af32abf"
    },
    {
      "constant": true,
      "inputs": [],
      "name": "goal",
      "outputs": [
        {
          "name": "",
          "type": "uint256"
        }
      ],
      "payable": false,
      "stateMutability": "view",
      "type": "function",
      "signature": "0x40193883"
    },
    {
      "constant": true,
      "inputs": [],
      "name": "weiRaised",
      "outputs": [
        {
          "name": "",
          "type": "uint256"
        }
      ],
      "payable": false,
      "stateMutability": "view",
      "type": "function",
      "signature": "0x4042b66f"
    },
    {
      "constant": true,
      "inputs": [
        {
          "name": "",
          "type": "address"
        }
      ],
      "name": "contributions",
      "outputs": [
        {
          "name": "",
          "type": "uint256"
        }
      ],
      "payable": false,
      "stateMutability": "view",
      "type": "function",
      "signature": "0x42e94c90"
    },
    {
      "constant": true,
      "inputs": [],
      "name": "isOpen",
      "outputs": [
        {
          "name": "",
          "type": "bool"
        }
      ],
      "payable": false,
      "stateMutability": "view",
      "type": "function",
      "signature": "0x47535d7b"
    },
    {
      "constant": true,
      "inputs": [],
      "name": "closingTime",
      "outputs": [
        {
          "name": "",
          "type": "uint256"
        }
      ],
      "payable": false,
      "stateMutability": "view",
      "type": "function",
      "signature": "0x4b6753bc"
    },
    {
      "constant": false,
      "inputs": [],
      "name": "finalize",
      "outputs": [],
      "payable": false,
      "stateMutability": "nonpayable",
      "type": "function",
      "signature": "0x4bb278f3"
    },
    {
      "constant": false,
      "inputs": [],
      "name": "renounceWhitelistAdmin",
      "outputs": [],
      "payable": false,
      "stateMutability": "nonpayable",
      "type": "function",
      "signature": "0x4c5a628c"
    },
    {
      "constant": true,
      "inputs": [],
      "name": "capReached",
      "outputs": [
        {
          "name": "",
          "type": "bool"
        }
      ],
      "payable": false,
      "stateMutability": "view",
      "type": "function",
      "signature": "0x4f935945"
    },
    {
      "constant": true,
      "inputs": [],
      "name": "wallet",
      "outputs": [
        {
          "name": "",
          "type": "address"
        }
      ],
      "payable": false,
      "stateMutability": "view",
      "type": "function",
      "signature": "0x521eb273"
    },
    {
      "constant": true,
      "inputs": [],
      "name": "teamFund",
      "outputs": [
        {
          "name": "",
          "type": "address"
        }
      ],
      "payable": false,
      "stateMutability": "view",
      "type": "function",
      "signature": "0x5495699f"
    },
    {
      "constant": true,
      "inputs": [],
      "name": "postICOSaleAddress",
      "outputs": [
        {
          "name": "",
          "type": "address"
        }
      ],
      "payable": false,
      "stateMutability": "view",
      "type": "function",
      "signature": "0x5f7ad3f9"
    },
    {
      "constant": true,
      "inputs": [],
      "name": "fundationFund",
      "outputs": [
        {
          "name": "",
          "type": "address"
        }
      ],
      "payable": false,
      "stateMutability": "view",
      "type": "function",
      "signature": "0x636ab772"
    },
    {
      "constant": true,
      "inputs": [],
      "name": "postICOfundAddress",
      "outputs": [
        {
          "name": "",
          "type": "address"
        }
      ],
      "payable": false,
      "stateMutability": "view",
      "type": "function",
      "signature": "0x6a1eac70"
    },
    {
      "constant": false,
      "inputs": [
        {
          "name": "account",
          "type": "address"
        }
      ],
      "name": "addWhitelistAdmin",
      "outputs": [],
      "payable": false,
      "stateMutability": "nonpayable",
      "type": "function",
      "signature": "0x7362d9c8"
    },
    {
      "constant": true,
      "inputs": [],
      "name": "goalReached",
      "outputs": [
        {
          "name": "",
          "type": "bool"
        }
      ],
      "payable": false,
      "stateMutability": "view",
      "type": "function",
      "signature": "0x7d3d6522"
    },
    {
      "constant": true,
      "inputs": [],
      "name": "bountiesFund",
      "outputs": [
        {
          "name": "",
          "type": "address"
        }
      ],
      "payable": false,
      "stateMutability": "view",
      "type": "function",
      "signature": "0x8a77c75c"
    },
    {
      "constant": true,
      "inputs": [],
      "name": "investorMinCap",
      "outputs": [
        {
          "name": "",
          "type": "uint256"
        }
      ],
      "payable": false,
      "stateMutability": "view",
      "type": "function",
      "signature": "0xb25d7f54"
    },
    {
      "constant": true,
      "inputs": [],
      "name": "finalized",
      "outputs": [
        {
          "name": "",
          "type": "bool"
        }
      ],
      "payable": false,
      "stateMutability": "view",
      "type": "function",
      "signature": "0xb3f05b97"
    },
    {
      "constant": true,
      "inputs": [],
      "name": "max_emision",
      "outputs": [
        {
          "name": "",
          "type": "uint256"
        }
      ],
      "payable": false,
      "stateMutability": "view",
      "type": "function",
      "signature": "0xb6023454"
    },
    {
      "constant": true,
      "inputs": [],
      "name": "openingTime",
      "outputs": [
        {
          "name": "",
          "type": "uint256"
        }
      ],
      "payable": false,
      "stateMutability": "view",
      "type": "function",
      "signature": "0xb7a8807c"
    },
    {
      "constant": true,
      "inputs": [],
      "name": "releaseTime",
      "outputs": [
        {
          "name": "",
          "type": "uint256"
        }
      ],
      "payable": false,
      "stateMutability": "view",
      "type": "function",
      "signature": "0xb91d4001"
    },
    {
      "constant": true,
      "inputs": [
        {
          "name": "account",
          "type": "address"
        }
      ],
      "name": "isWhitelistAdmin",
      "outputs": [
        {
          "name": "",
          "type": "bool"
        }
      ],
      "payable": false,
      "stateMutability": "view",
      "type": "function",
      "signature": "0xbb5f747b"
    },
    {
      "constant": false,
      "inputs": [
        {
          "name": "refundee",
          "type": "address"
        }
      ],
      "name": "claimRefund",
      "outputs": [],
      "payable": false,
      "stateMutability": "nonpayable",
      "type": "function",
      "signature": "0xbffa55d5"
    },
    {
      "constant": true,
      "inputs": [],
      "name": "stage",
      "outputs": [
        {
          "name": "",
          "type": "uint8"
        }
      ],
      "payable": false,
      "stateMutability": "view",
      "type": "function",
      "signature": "0xc040e6b8"
    },
    {
      "constant": true,
      "inputs": [],
      "name": "teamTokens",
      "outputs": [
        {
          "name": "",
          "type": "uint256"
        }
      ],
      "payable": false,
      "stateMutability": "view",
      "type": "function",
      "signature": "0xc3e3c7bc"
    },
    {
      "constant": true,
      "inputs": [],
      "name": "preICOTokenAmmount",
      "outputs": [
        {
          "name": "",
          "type": "uint256"
        }
      ],
      "payable": false,
      "stateMutability": "view",
      "type": "function",
      "signature": "0xcc1dc4e7"
    },
    {
      "constant": false,
      "inputs": [],
      "name": "renounceWhitelisted",
      "outputs": [],
      "payable": false,
      "stateMutability": "nonpayable",
      "type": "function",
      "signature": "0xd6cd9473"
    },
    {
      "constant": true,
      "inputs": [],
      "name": "foundationTimelock",
      "outputs": [
        {
          "name": "",
          "type": "address"
        }
      ],
      "payable": false,
      "stateMutability": "view",
      "type": "function",
      "signature": "0xec0de26e"
    },
    {
      "constant": false,
      "inputs": [
        {
          "name": "beneficiary",
          "type": "address"
        }
      ],
      "name": "buyTokens",
      "outputs": [],
      "payable": true,
      "stateMutability": "payable",
      "type": "function",
      "signature": "0xec8ac4d8"
    },
    {
      "constant": true,
      "inputs": [],
      "name": "investorHardCap",
      "outputs": [
        {
          "name": "",
          "type": "uint256"
        }
      ],
      "payable": false,
      "stateMutability": "view",
      "type": "function",
      "signature": "0xed5db874"
    },
    {
      "constant": true,
      "inputs": [],
      "name": "fundationTokens",
      "outputs": [
        {
          "name": "",
          "type": "uint256"
        }
      ],
      "payable": false,
      "stateMutability": "view",
      "type": "function",
      "signature": "0xeee72441"
    },
    {
      "constant": true,
      "inputs": [],
      "name": "token",
      "outputs": [
        {
          "name": "",
          "type": "address"
        }
      ],
      "payable": false,
      "stateMutability": "view",
      "type": "function",
      "signature": "0xfc0c546a"
    },
    {
      "inputs": [
        {
          "name": "_wallet",
          "type": "address"
        },
        {
          "name": "_token",
          "type": "address"
        },
        {
          "name": "_rate",
          "type": "uint256"
        },
        {
          "name": "_cap",
          "type": "uint256"
        },
        {
          "name": "_openingTime",
          "type": "uint256"
        },
        {
          "name": "_closingTime",
          "type": "uint256"
        },
        {
          "name": "_goal",
          "type": "uint256"
        },
        {
          "name": "_releaseTime",
          "type": "uint256"
        },
        {
          "name": "_fundationFund",
          "type": "address"
        },
        {
          "name": "_bountiesFund",
          "type": "address"
        },
        {
          "name": "_teamFund",
          "type": "address"
        }
      ],
      "payable": false,
      "stateMutability": "nonpayable",
      "type": "constructor",
      "signature": "constructor"
    },
    {
      "payable": true,
      "stateMutability": "payable",
      "type": "fallback"
    },
    {
      "anonymous": false,
      "inputs": [],
      "name": "CrowdsaleFinalized",
      "type": "event",
      "signature": "0x9270cc390c096600a1c17c44345a1ba689fafd99d97487b10cfccf86cf731836"
    },
    {
      "anonymous": false,
      "inputs": [
        {
          "indexed": false,
          "name": "prevClosingTime",
          "type": "uint256"
        },
        {
          "indexed": false,
          "name": "newClosingTime",
          "type": "uint256"
        }
      ],
      "name": "TimedCrowdsaleExtended",
      "type": "event",
      "signature": "0x46711e222f558a07afd26e5e71b48ecb0a8b2cdcd40faeb1323e05e2c76a2f32"
    },
    {
      "anonymous": false,
      "inputs": [
        {
          "indexed": true,
          "name": "purchaser",
          "type": "address"
        },
        {
          "indexed": true,
          "name": "beneficiary",
          "type": "address"
        },
        {
          "indexed": false,
          "name": "value",
          "type": "uint256"
        },
        {
          "indexed": false,
          "name": "amount",
          "type": "uint256"
        }
      ],
      "name": "TokensPurchased",
      "type": "event",
      "signature": "0x6faf93231a456e552dbc9961f58d9713ee4f2e69d15f1975b050ef0911053a7b"
    },
    {
      "anonymous": false,
      "inputs": [
        {
          "indexed": true,
          "name": "account",
          "type": "address"
        }
      ],
      "name": "WhitelistedAdded",
      "type": "event",
      "signature": "0xee1504a83b6d4a361f4c1dc78ab59bfa30d6a3b6612c403e86bb01ef2984295f"
    },
    {
      "anonymous": false,
      "inputs": [
        {
          "indexed": true,
          "name": "account",
          "type": "address"
        }
      ],
      "name": "WhitelistedRemoved",
      "type": "event",
      "signature": "0x270d9b30cf5b0793bbfd54c9d5b94aeb49462b8148399000265144a8722da6b6"
    },
    {
      "anonymous": false,
      "inputs": [
        {
          "indexed": true,
          "name": "account",
          "type": "address"
        }
      ],
      "name": "WhitelistAdminAdded",
      "type": "event",
      "signature": "0x22380c05984257a1cb900161c713dd71d39e74820f1aea43bd3f1bdd20961299"
    },
    {
      "anonymous": false,
      "inputs": [
        {
          "indexed": true,
          "name": "account",
          "type": "address"
        }
      ],
      "name": "WhitelistAdminRemoved",
      "type": "event",
      "signature": "0x0a8eb35e5ca14b3d6f28e4abf2f128dbab231a58b56e89beb5d636115001e165"
    },
    {
      "constant": false,
      "inputs": [
        {
          "name": "_addresses",
          "type": "address[]"
        }
      ],
      "name": "addAddressesToWhitelist",
      "outputs": [],
      "payable": false,
      "stateMutability": "nonpayable",
      "type": "function",
      "signature": "0xe2ec6ec3"
    },
    {
      "constant": true,
      "inputs": [],
      "name": "rate",
      "outputs": [
        {
          "name": "",
          "type": "uint256"
        }
      ],
      "payable": false,
      "stateMutability": "view",
      "type": "function",
      "signature": "0x2c4e722e"
    },
    {
      "constant": true,
      "inputs": [],
      "name": "getCurrentRate",
      "outputs": [
        {
          "name": "",
          "type": "uint256"
        }
      ],
      "payable": false,
      "stateMutability": "view",
      "type": "function",
      "signature": "0xf7fb07b0"
    }
  ],
  "bytecode": "0x60806040526706f05b59d3b20000600d55674563918244f40000600e556000601060006101000a81548160ff021916908360018111156200003c57fe5b0217905550606460115569d3c21bcecceda10000006013556989a4921338674240000060145569152d02c7e14af6800000601555692a5a058fc295ed000000601655690a968163f0a57b400000601755681043561a8829300000601855348015620000a657600080fd5b506040516101608062004a578339810180604052610160811015620000ca57600080fd5b8101908080519060200190929190805190602001909291908051906020019092919080519060200190929190805190602001909291908051906020019092919080519060200190929190805190602001909291908051906020019092919080519060200190929190805190602001909291905050508487878a8c8f8f6200016033620004e2640100000000026401000000009004565b60016002819055506000831115156200017857600080fd5b600073ffffffffffffffffffffffffffffffffffffffff168273ffffffffffffffffffffffffffffffffffffffff1614151515620001b557600080fd5b600073ffffffffffffffffffffffffffffffffffffffff168173ffffffffffffffffffffffffffffffffffffffff1614151515620001f257600080fd5b8260058190555081600460006101000a81548173ffffffffffffffffffffffffffffffffffffffff021916908373ffffffffffffffffffffffffffffffffffffffff16021790555080600360006101000a81548173ffffffffffffffffffffffffffffffffffffffff021916908373ffffffffffffffffffffffffffffffffffffffff1602179055505050506000811115156200028e57600080fd5b8060078190555050428210151515620002a657600080fd5b8181111515620002b557600080fd5b816008819055508060098190555050506000600a60006101000a81548160ff021916908315150217905550600081111515620002f057600080fd5b620003096200054c640100000000026401000000009004565b62000313620006ce565b808273ffffffffffffffffffffffffffffffffffffffff1673ffffffffffffffffffffffffffffffffffffffff168152602001915050604051809103906000f08015801562000366573d6000803e3d6000fd5b50600c60006101000a81548173ffffffffffffffffffffffffffffffffffffffff021916908373ffffffffffffffffffffffffffffffffffffffff16021790555080600b8190555050878511151515620003bf57600080fd5b8860128190555083601e8190555082601a60006101000a81548173ffffffffffffffffffffffffffffffffffffffff021916908373ffffffffffffffffffffffffffffffffffffffff16021790555081601960006101000a81548173ffffffffffffffffffffffffffffffffffffffff021916908373ffffffffffffffffffffffffffffffffffffffff16021790555080601b60006101000a81548173ffffffffffffffffffffffffffffffffffffffff021916908373ffffffffffffffffffffffffffffffffffffffff1602179055508a601d60006101000a81548173ffffffffffffffffffffffffffffffffffffffff021916908373ffffffffffffffffffffffffffffffffffffffff1602179055505050505050505050505050620006df565b62000506816000620005766401000000000262002250179091906401000000009004565b8073ffffffffffffffffffffffffffffffffffffffff167f22380c05984257a1cb900161c713dd71d39e74820f1aea43bd3f1bdd2096129960405160405180910390a250565b6000600460009054906101000a900473ffffffffffffffffffffffffffffffffffffffff16905090565b600073ffffffffffffffffffffffffffffffffffffffff168173ffffffffffffffffffffffffffffffffffffffff1614151515620005b357600080fd5b620005ce828262000639640100000000026401000000009004565b151515620005db57600080fd5b60018260000160008373ffffffffffffffffffffffffffffffffffffffff1673ffffffffffffffffffffffffffffffffffffffff16815260200190815260200160002060006101000a81548160ff0219169083151502179055505050565b60008073ffffffffffffffffffffffffffffffffffffffff168273ffffffffffffffffffffffffffffffffffffffff16141515156200067757600080fd5b8260000160008373ffffffffffffffffffffffffffffffffffffffff1673ffffffffffffffffffffffffffffffffffffffff16815260200190815260200160002060009054906101000a900460ff16905092915050565b604051610d7e8062003cd983390190565b6135ea80620006ef6000396000f3fe608060405260043610620002a7576000357c0100000000000000000000000000000000000000000000000000000000900480637362d9c81162000174578063c040e6b811620000e4578063ec0de26e11620000a2578063ec0de26e1462000c0e578063ec8ac4d81462000c68578063ed5db8741462000caf578063eee724411462000cdd578063f7fb07b01462000d0b578063fc0c546a1462000d3957620002a7565b8063c040e6b81462000a8f578063c3e3c7bc1462000acc578063cc1dc4e71462000afa578063d6cd94731462000b28578063e2ec6ec31462000b4257620002a7565b8063b60234541162000132578063b60234541462000943578063b7a8807c1462000971578063b91d4001146200099f578063bb5f747b14620009cd578063bffa55d51462000a3a57620002a7565b80637362d9c814620008025780637d3d652214620008575780638a77c75c1462000889578063b25d7f5414620008e3578063b3f05b97146200091157620002a7565b806342e94c90116200021c5780634f93594511620001da5780634f935945146200060e578063521eb27314620006405780635495699f146200069a5780635f7ad3f914620006f4578063636ab772146200074e5780636a1eac7014620007a857620002a7565b806342e94c90146200051157806347535d7b146200057a5780634b6753bc14620005ac5780634bb278f314620005da5780634c5a628c14620005f457620002a7565b80632c4e722e116200026a5780632c4e722e14620003ec578063355274ea146200041a5780633af32abf14620004485780634019388314620004b55780634042b66f14620004e357620002a7565b80630c445f8c14620002b457806310154bad14620002e25780631515bc2b146200033757806326ae8b771462000369578063291d95491462000397575b620002b23362000d93565b005b348015620002c157600080fd5b50620002cc62000e9a565b6040518082815260200191505060405180910390f35b348015620002ef57600080fd5b5062000335600480360360208110156200030857600080fd5b81019080803573ffffffffffffffffffffffffffffffffffffffff16906020019092919050505062000ea0565b005b3480156200034457600080fd5b506200034f62000ec5565b604051808215151515815260200191505060405180910390f35b3480156200037657600080fd5b506200038162000ed1565b6040518082815260200191505060405180910390f35b348015620003a457600080fd5b50620003ea60048036036020811015620003bd57600080fd5b81019080803573ffffffffffffffffffffffffffffffffffffffff16906020019092919050505062000ed7565b005b348015620003f957600080fd5b506200040462000efc565b6040518082815260200191505060405180910390f35b3480156200042757600080fd5b506200043262000f03565b6040518082815260200191505060405180910390f35b3480156200045557600080fd5b506200049b600480360360208110156200046e57600080fd5b81019080803573ffffffffffffffffffffffffffffffffffffffff16906020019092919050505062000f0d565b604051808215151515815260200191505060405180910390f35b348015620004c257600080fd5b50620004cd62000f2c565b6040518082815260200191505060405180910390f35b348015620004f057600080fd5b50620004fb62000f36565b6040518082815260200191505060405180910390f35b3480156200051e57600080fd5b5062000564600480360360208110156200053757600080fd5b81019080803573ffffffffffffffffffffffffffffffffffffffff16906020019092919050505062000f40565b6040518082815260200191505060405180910390f35b3480156200058757600080fd5b506200059262000f58565b604051808215151515815260200191505060405180910390f35b348015620005b957600080fd5b50620005c462000f74565b6040518082815260200191505060405180910390f35b348015620005e757600080fd5b50620005f262000f7e565b005b3480156200060157600080fd5b506200060c62001004565b005b3480156200061b57600080fd5b506200062662001011565b604051808215151515815260200191505060405180910390f35b3480156200064d57600080fd5b506200065862001027565b604051808273ffffffffffffffffffffffffffffffffffffffff1673ffffffffffffffffffffffffffffffffffffffff16815260200191505060405180910390f35b348015620006a757600080fd5b50620006b262001051565b604051808273ffffffffffffffffffffffffffffffffffffffff1673ffffffffffffffffffffffffffffffffffffffff16815260200191505060405180910390f35b3480156200070157600080fd5b506200070c62001077565b604051808273ffffffffffffffffffffffffffffffffffffffff1673ffffffffffffffffffffffffffffffffffffffff16815260200191505060405180910390f35b3480156200075b57600080fd5b50620007666200109d565b604051808273ffffffffffffffffffffffffffffffffffffffff1673ffffffffffffffffffffffffffffffffffffffff16815260200191505060405180910390f35b348015620007b557600080fd5b50620007c0620010c3565b604051808273ffffffffffffffffffffffffffffffffffffffff1673ffffffffffffffffffffffffffffffffffffffff16815260200191505060405180910390f35b3480156200080f57600080fd5b5062000855600480360360208110156200082857600080fd5b81019080803573ffffffffffffffffffffffffffffffffffffffff169060200190929190505050620010e9565b005b3480156200086457600080fd5b506200086f6200110e565b604051808215151515815260200191505060405180910390f35b3480156200089657600080fd5b50620008a162001124565b604051808273ffffffffffffffffffffffffffffffffffffffff1673ffffffffffffffffffffffffffffffffffffffff16815260200191505060405180910390f35b348015620008f057600080fd5b50620008fb6200114a565b6040518082815260200191505060405180910390f35b3480156200091e57600080fd5b506200092962001150565b604051808215151515815260200191505060405180910390f35b3480156200095057600080fd5b506200095b62001167565b6040518082815260200191505060405180910390f35b3480156200097e57600080fd5b50620009896200116d565b6040518082815260200191505060405180910390f35b348015620009ac57600080fd5b50620009b762001177565b6040518082815260200191505060405180910390f35b348015620009da57600080fd5b5062000a2060048036036020811015620009f357600080fd5b81019080803573ffffffffffffffffffffffffffffffffffffffff1690602001909291905050506200117d565b604051808215151515815260200191505060405180910390f35b34801562000a4757600080fd5b5062000a8d6004803603602081101562000a6057600080fd5b81019080803573ffffffffffffffffffffffffffffffffffffffff1690602001909291905050506200119c565b005b34801562000a9c57600080fd5b5062000aa7620012a3565b6040518082600181111562000ab857fe5b60ff16815260200191505060405180910390f35b34801562000ad957600080fd5b5062000ae4620012b6565b6040518082815260200191505060405180910390f35b34801562000b0757600080fd5b5062000b12620012bc565b6040518082815260200191505060405180910390f35b34801562000b3557600080fd5b5062000b40620012c2565b005b34801562000b4f57600080fd5b5062000c0c6004803603602081101562000b6857600080fd5b810190808035906020019064010000000081111562000b8657600080fd5b82018360208201111562000b9957600080fd5b8035906020019184602083028401116401000000008311171562000bbc57600080fd5b919080806020026020016040519081016040528093929190818152602001838360200280828437600081840152601f19601f820116905080830192505050505050509192919290505050620012cf565b005b34801562000c1b57600080fd5b5062000c266200132b565b604051808273ffffffffffffffffffffffffffffffffffffffff1673ffffffffffffffffffffffffffffffffffffffff16815260200191505060405180910390f35b62000cad6004803603602081101562000c8057600080fd5b81019080803573ffffffffffffffffffffffffffffffffffffffff16906020019092919050505062000d93565b005b34801562000cbc57600080fd5b5062000cc762001351565b6040518082815260200191505060405180910390f35b34801562000cea57600080fd5b5062000cf562001357565b6040518082815260200191505060405180910390f35b34801562000d1857600080fd5b5062000d236200135d565b6040518082815260200191505060405180910390f35b34801562000d4657600080fd5b5062000d5162001383565b604051808273ffffffffffffffffffffffffffffffffffffffff1673ffffffffffffffffffffffffffffffffffffffff16815260200191505060405180910390f35b600160026000828254019250508190555060006002549050600034905062000dbc8382620013ad565b600062000dc9826200143d565b905062000de2826006546200145d90919063ffffffff16565b60068190555062000df484826200147f565b8373ffffffffffffffffffffffffffffffffffffffff163373ffffffffffffffffffffffffffffffffffffffff167f6faf93231a456e552dbc9961f58d9713ee4f2e69d15f1975b050ef0911053a7b8484604051808381526020018281526020019250505060405180910390a362000e6d84836200148f565b62000e7762001619565b62000e838483620016f3565b50506002548114151562000e9657600080fd5b5050565b60145481565b62000eab336200117d565b151562000eb757600080fd5b62000ec281620016f7565b50565b60006009544211905090565b60155481565b62000ee2336200117d565b151562000eee57600080fd5b62000ef98162001753565b50565b6000806000fd5b6000600754905090565b600062000f25826001620017af90919063ffffffff16565b9050919050565b6000600b54905090565b6000600654905090565b600f6020528060005260406000206000915090505481565b6000600854421015801562000f6f57506009544211155b905090565b6000600954905090565b600a60009054906101000a900460ff1615151562000f9b57600080fd5b62000fa562000ec5565b151562000fb157600080fd5b6001600a60006101000a81548160ff02191690831515021790555062000fd662001844565b7f9270cc390c096600a1c17c44345a1ba689fafd99d97487b10cfccf86cf73183660405160405180910390a1565b6200100f3362002031565b565b60006007546200102062000f36565b1015905090565b6000600460009054906101000a900473ffffffffffffffffffffffffffffffffffffffff16905090565b601b60009054906101000a900473ffffffffffffffffffffffffffffffffffffffff1681565b601c60009054906101000a900473ffffffffffffffffffffffffffffffffffffffff1681565b601a60009054906101000a900473ffffffffffffffffffffffffffffffffffffffff1681565b601d60009054906101000a900473ffffffffffffffffffffffffffffffffffffffff1681565b620010f4336200117d565b15156200110057600080fd5b6200110b816200208d565b50565b6000600b546200111d62000f36565b1015905090565b601960009054906101000a900473ffffffffffffffffffffffffffffffffffffffff1681565b600d5481565b6000600a60009054906101000a900460ff16905090565b60135481565b6000600854905090565b601e5481565b600062001195826000620017af90919063ffffffff16565b9050919050565b620011a662001150565b1515620011b257600080fd5b620011bc6200110e565b151515620011c957600080fd5b600c60009054906101000a900473ffffffffffffffffffffffffffffffffffffffff1673ffffffffffffffffffffffffffffffffffffffff166351cff8d9826040518263ffffffff167c0100000000000000000000000000000000000000000000000000000000028152600401808273ffffffffffffffffffffffffffffffffffffffff1673ffffffffffffffffffffffffffffffffffffffff168152602001915050600060405180830381600087803b1580156200128757600080fd5b505af11580156200129c573d6000803e3d6000fd5b5050505050565b601060009054906101000a900460ff1681565b60175481565b60185481565b620012cd3362001753565b565b620012da336200117d565b1515620012e657600080fd5b60008090505b815181101562001327576200131982828151811015156200130957fe5b9060200190602002015162000ea0565b8080600101915050620012ec565b5050565b601f60009054906101000a900473ffffffffffffffffffffffffffffffffffffffff1681565b600e5481565b60165481565b60006200136962000f58565b15156200137a576000905062001380565b60125490505b90565b6000600360009054906101000a900473ffffffffffffffffffffffffffffffffffffffff16905090565b620013b98282620020e9565b6000600f60008473ffffffffffffffffffffffffffffffffffffffff1673ffffffffffffffffffffffffffffffffffffffff16815260200190815260200160002054905060006200141483836200145d90919063ffffffff16565b9050600d5483101580156200142b5750600e548111155b15156200143757600080fd5b50505050565b600062001456826012546200211090919063ffffffff16565b9050919050565b60008082840190508381101515156200147557600080fd5b8091505092915050565b6200148b828262002152565b5050565b6200149b82826200224c565b620014ef81600f60008573ffffffffffffffffffffffffffffffffffffffff1673ffffffffffffffffffffffffffffffffffffffff168152602001908152602001600020546200145d90919063ffffffff16565b600f60008473ffffffffffffffffffffffffffffffffffffffff1673ffffffffffffffffffffffffffffffffffffffff168152602001908152602001600020819055506018546200153f62001383565b73ffffffffffffffffffffffffffffffffffffffff166318160ddd6040518163ffffffff167c010000000000000000000000000000000000000000000000000000000002815260040160206040518083038186803b158015620015a157600080fd5b505afa158015620015b6573d6000803e3d6000fd5b505050506040513d6020811015620015cd57600080fd5b810190808051906020019092919050505010151562001615576001601060006101000a81548160ff021916908360018111156200160657fe5b02179055506011546012819055505b5050565b600c60009054906101000a900473ffffffffffffffffffffffffffffffffffffffff1673ffffffffffffffffffffffffffffffffffffffff1663f340fa0134336040518363ffffffff167c0100000000000000000000000000000000000000000000000000000000028152600401808273ffffffffffffffffffffffffffffffffffffffff1673ffffffffffffffffffffffffffffffffffffffff1681526020019150506000604051808303818588803b158015620016d757600080fd5b505af1158015620016ec573d6000803e3d6000fd5b5050505050565b5050565b6200170d8160016200225090919063ffffffff16565b8073ffffffffffffffffffffffffffffffffffffffff167fee1504a83b6d4a361f4c1dc78ab59bfa30d6a3b6612c403e86bb01ef2984295f60405160405180910390a250565b620017698160016200230490919063ffffffff16565b8073ffffffffffffffffffffffffffffffffffffffff167f270d9b30cf5b0793bbfd54c9d5b94aeb49462b8148399000265144a8722da6b660405160405180910390a250565b60008073ffffffffffffffffffffffffffffffffffffffff168273ffffffffffffffffffffffffffffffffffffffff1614151515620017ed57600080fd5b8260000160008373ffffffffffffffffffffffffffffffffffffffff1673ffffffffffffffffffffffffffffffffffffffff16815260200190815260200160002060009054906101000a900460ff16905092915050565b6200184e6200110e565b1562002025576200185e62001383565b73ffffffffffffffffffffffffffffffffffffffff16633f4ba83a6040518163ffffffff167c0100000000000000000000000000000000000000000000000000000000028152600401600060405180830381600087803b158015620018c257600080fd5b505af1158015620018d7573d6000803e3d6000fd5b505050506000620018e762001383565b90506000620019a18273ffffffffffffffffffffffffffffffffffffffff166318160ddd6040518163ffffffff167c010000000000000000000000000000000000000000000000000000000002815260040160206040518083038186803b1580156200195257600080fd5b505afa15801562001967573d6000803e3d6000fd5b505050506040513d60208110156200197e57600080fd5b8101908080519060200190929190505050601454620023b790919063ffffffff16565b9050600081111562001b9d576000600a601d60009054906101000a900473ffffffffffffffffffffffffffffffffffffffff16620019de62001383565b620019e862002696565b808481526020018373ffffffffffffffffffffffffffffffffffffffff1673ffffffffffffffffffffffffffffffffffffffff1681526020018273ffffffffffffffffffffffffffffffffffffffff1673ffffffffffffffffffffffffffffffffffffffff1681526020019350505050604051809103906000f08015801562001a75573d6000803e3d6000fd5b50905080601c60006101000a81548173ffffffffffffffffffffffffffffffffffffffff021916908373ffffffffffffffffffffffffffffffffffffffff1602179055508273ffffffffffffffffffffffffffffffffffffffff166340c10f1982846040518363ffffffff167c0100000000000000000000000000000000000000000000000000000000028152600401808373ffffffffffffffffffffffffffffffffffffffff1673ffffffffffffffffffffffffffffffffffffffff16815260200182815260200192505050602060405180830381600087803b15801562001b5d57600080fd5b505af115801562001b72573d6000803e3d6000fd5b505050506040513d602081101562001b8957600080fd5b810190808051906020019092919050505050505b600062001ba962001383565b601a60009054906101000a900473ffffffffffffffffffffffffffffffffffffffff16601e5462001bd9620026a7565b808473ffffffffffffffffffffffffffffffffffffffff1673ffffffffffffffffffffffffffffffffffffffff1681526020018373ffffffffffffffffffffffffffffffffffffffff1673ffffffffffffffffffffffffffffffffffffffff1681526020018281526020019350505050604051809103906000f08015801562001c66573d6000803e3d6000fd5b5090508273ffffffffffffffffffffffffffffffffffffffff166340c10f19826016546040518363ffffffff167c0100000000000000000000000000000000000000000000000000000000028152600401808373ffffffffffffffffffffffffffffffffffffffff1673ffffffffffffffffffffffffffffffffffffffff16815260200182815260200192505050602060405180830381600087803b15801562001d0f57600080fd5b505af115801562001d24573d6000803e3d6000fd5b505050506040513d602081101562001d3b57600080fd5b81019080805190602001909291905050505080601f60006101000a81548173ffffffffffffffffffffffffffffffffffffffff021916908373ffffffffffffffffffffffffffffffffffffffff1602179055508273ffffffffffffffffffffffffffffffffffffffff166340c10f19601960009054906101000a900473ffffffffffffffffffffffffffffffffffffffff166015546040518363ffffffff167c0100000000000000000000000000000000000000000000000000000000028152600401808373ffffffffffffffffffffffffffffffffffffffff1673ffffffffffffffffffffffffffffffffffffffff16815260200182815260200192505050602060405180830381600087803b15801562001e5657600080fd5b505af115801562001e6b573d6000803e3d6000fd5b505050506040513d602081101562001e8257600080fd5b8101908080519060200190929190505050508273ffffffffffffffffffffffffffffffffffffffff166340c10f19601b60009054906101000a900473ffffffffffffffffffffffffffffffffffffffff166017546040518363ffffffff167c0100000000000000000000000000000000000000000000000000000000028152600401808373ffffffffffffffffffffffffffffffffffffffff1673ffffffffffffffffffffffffffffffffffffffff16815260200182815260200192505050602060405180830381600087803b15801562001f5c57600080fd5b505af115801562001f71573d6000803e3d6000fd5b505050506040513d602081101562001f8857600080fd5b81019080805190602001909291905050505062001fa462001383565b73ffffffffffffffffffffffffffffffffffffffff1663986502756040518163ffffffff167c0100000000000000000000000000000000000000000000000000000000028152600401600060405180830381600087803b1580156200200857600080fd5b505af11580156200201d573d6000803e3d6000fd5b505050505050505b6200202f620023da565b565b620020478160006200230490919063ffffffff16565b8073ffffffffffffffffffffffffffffffffffffffff167f0a8eb35e5ca14b3d6f28e4abf2f128dbab231a58b56e89beb5d636115001e16560405160405180910390a250565b620020a38160006200225090919063ffffffff16565b8073ffffffffffffffffffffffffffffffffffffffff167f22380c05984257a1cb900161c713dd71d39e74820f1aea43bd3f1bdd2096129960405160405180910390a250565b620020f48262000f0d565b15156200210057600080fd5b6200210c8282620025dd565b5050565b6000808314156200212557600090506200214c565b600082840290508284828115156200213957fe5b041415156200214757600080fd5b809150505b92915050565b6200215c62001383565b73ffffffffffffffffffffffffffffffffffffffff166340c10f1983836040518363ffffffff167c0100000000000000000000000000000000000000000000000000000000028152600401808373ffffffffffffffffffffffffffffffffffffffff1673ffffffffffffffffffffffffffffffffffffffff16815260200182815260200192505050602060405180830381600087803b158015620021ff57600080fd5b505af115801562002214573d6000803e3d6000fd5b505050506040513d60208110156200222b57600080fd5b810190808051906020019092919050505015156200224857600080fd5b5050565b5050565b600073ffffffffffffffffffffffffffffffffffffffff168173ffffffffffffffffffffffffffffffffffffffff16141515156200228d57600080fd5b620022998282620017af565b151515620022a657600080fd5b60018260000160008373ffffffffffffffffffffffffffffffffffffffff1673ffffffffffffffffffffffffffffffffffffffff16815260200190815260200160002060006101000a81548160ff0219169083151502179055505050565b600073ffffffffffffffffffffffffffffffffffffffff168173ffffffffffffffffffffffffffffffffffffffff16141515156200234157600080fd5b6200234d8282620017af565b15156200235957600080fd5b60008260000160008373ffffffffffffffffffffffffffffffffffffffff1673ffffffffffffffffffffffffffffffffffffffff16815260200190815260200160002060006101000a81548160ff0219169083151502179055505050565b6000828211151515620023c957600080fd5b600082840390508091505092915050565b620023e46200110e565b156200253057600c60009054906101000a900473ffffffffffffffffffffffffffffffffffffffff1673ffffffffffffffffffffffffffffffffffffffff166343d726d66040518163ffffffff167c0100000000000000000000000000000000000000000000000000000000028152600401600060405180830381600087803b1580156200247157600080fd5b505af115801562002486573d6000803e3d6000fd5b50505050600c60009054906101000a900473ffffffffffffffffffffffffffffffffffffffff1673ffffffffffffffffffffffffffffffffffffffff16639af6549a6040518163ffffffff167c0100000000000000000000000000000000000000000000000000000000028152600401600060405180830381600087803b1580156200251157600080fd5b505af115801562002526573d6000803e3d6000fd5b50505050620025d1565b600c60009054906101000a900473ffffffffffffffffffffffffffffffffffffffff1673ffffffffffffffffffffffffffffffffffffffff16638c52dc416040518163ffffffff167c0100000000000000000000000000000000000000000000000000000000028152600401600060405180830381600087803b158015620025b757600080fd5b505af1158015620025cc573d6000803e3d6000fd5b505050505b620025db62002603565b565b620025e762000f58565b1515620025f357600080fd5b620025ff828262002605565b5050565b565b62002611828262002644565b60075462002632826200262362000f36565b6200145d90919063ffffffff16565b111515156200264057600080fd5b5050565b600073ffffffffffffffffffffffffffffffffffffffff168273ffffffffffffffffffffffffffffffffffffffff16141515156200268157600080fd5b600081141515156200269257600080fd5b5050565b60405161089780620026b983390190565b60405161066f8062002f508339019056fe608060405234801561001057600080fd5b506040516060806108978339810180604052606081101561003057600080fd5b81019080805190602001909291908051906020019092919080519060200190929190505050600160008190555060008311151561006c57600080fd5b600073ffffffffffffffffffffffffffffffffffffffff168273ffffffffffffffffffffffffffffffffffffffff16141515156100a857600080fd5b600073ffffffffffffffffffffffffffffffffffffffff168173ffffffffffffffffffffffffffffffffffffffff16141515156100e457600080fd5b8260038190555081600260006101000a81548173ffffffffffffffffffffffffffffffffffffffff021916908373ffffffffffffffffffffffffffffffffffffffff16021790555080600160006101000a81548173ffffffffffffffffffffffffffffffffffffffff021916908373ffffffffffffffffffffffffffffffffffffffff1602179055505050506107188061017f6000396000f3fe608060405260043610610067576000357c0100000000000000000000000000000000000000000000000000000000900480632c4e722e146100725780634042b66f1461009d578063521eb273146100c8578063ec8ac4d81461011f578063fc0c546a14610163575b610070336101ba565b005b34801561007e57600080fd5b506100876102b0565b6040518082815260200191505060405180910390f35b3480156100a957600080fd5b506100b26102ba565b6040518082815260200191505060405180910390f35b3480156100d457600080fd5b506100dd6102c4565b604051808273ffffffffffffffffffffffffffffffffffffffff1673ffffffffffffffffffffffffffffffffffffffff16815260200191505060405180910390f35b6101616004803603602081101561013557600080fd5b81019080803573ffffffffffffffffffffffffffffffffffffffff1690602001909291905050506101ba565b005b34801561016f57600080fd5b506101786102ee565b604051808273ffffffffffffffffffffffffffffffffffffffff1673ffffffffffffffffffffffffffffffffffffffff16815260200191505060405180910390f35b6001600080828254019250508190555060008054905060003490506101df8382610318565b60006101ea82610368565b90506102018260045461038690919063ffffffff16565b60048190555061021184826103a7565b8373ffffffffffffffffffffffffffffffffffffffff163373ffffffffffffffffffffffffffffffffffffffff167f6faf93231a456e552dbc9961f58d9713ee4f2e69d15f1975b050ef0911053a7b8484604051808381526020018281526020019250505060405180910390a361028884836103b5565b6102906103b9565b61029a8483610424565b5050600054811415156102ac57600080fd5b5050565b6000600354905090565b6000600454905090565b6000600260009054906101000a900473ffffffffffffffffffffffffffffffffffffffff16905090565b6000600160009054906101000a900473ffffffffffffffffffffffffffffffffffffffff16905090565b600073ffffffffffffffffffffffffffffffffffffffff168273ffffffffffffffffffffffffffffffffffffffff161415151561035457600080fd5b6000811415151561036457600080fd5b5050565b600061037f6003548361042890919063ffffffff16565b9050919050565b600080828401905083811015151561039d57600080fd5b8091505092915050565b6103b18282610466565b5050565b5050565b600260009054906101000a900473ffffffffffffffffffffffffffffffffffffffff1673ffffffffffffffffffffffffffffffffffffffff166108fc349081150290604051600060405180830381858888f19350505050158015610421573d6000803e3d6000fd5b50565b5050565b60008083141561043b5760009050610460565b6000828402905082848281151561044e57fe5b0414151561045b57600080fd5b809150505b92915050565b6104b38282600160009054906101000a900473ffffffffffffffffffffffffffffffffffffffff1673ffffffffffffffffffffffffffffffffffffffff166104b79092919063ffffffff16565b5050565b61059f838473ffffffffffffffffffffffffffffffffffffffff1663a9059cbb90507c0100000000000000000000000000000000000000000000000000000000028484604051602401808373ffffffffffffffffffffffffffffffffffffffff1673ffffffffffffffffffffffffffffffffffffffff16815260200182815260200192505050604051602081830303815290604052907bffffffffffffffffffffffffffffffffffffffffffffffffffffffff19166020820180517bffffffffffffffffffffffffffffffffffffffffffffffffffffffff83818316178352505050506105a4565b505050565b6105c38273ffffffffffffffffffffffffffffffffffffffff166106d9565b15156105ce57600080fd5b600060608373ffffffffffffffffffffffffffffffffffffffff16836040518082805190602001908083835b60208310151561061f57805182526020820191506020810190506020830392506105fa565b6001836020036101000a0380198251168184511680821785525050505050509050019150506000604051808303816000865af19150503d8060008114610681576040519150601f19603f3d011682016040523d82523d6000602084013e610686565b606091505b509150915081151561069757600080fd5b6000815111156106d3578080602001905160208110156106b657600080fd5b810190808051906020019092919050505015156106d257600080fd5b5b50505050565b600080823b90506000811191505091905056fea165627a7a72305820dc82e905b26f5a223147ab6ddaf38751a16b040e0aaab6d19840cdad1dfa5fc90029608060405234801561001057600080fd5b5060405160608061066f8339810180604052606081101561003057600080fd5b81019080805190602001909291908051906020019092919080519060200190929190505050428111151561006357600080fd5b826000806101000a81548173ffffffffffffffffffffffffffffffffffffffff021916908373ffffffffffffffffffffffffffffffffffffffff16021790555081600160006101000a81548173ffffffffffffffffffffffffffffffffffffffff021916908373ffffffffffffffffffffffffffffffffffffffff16021790555080600281905550505050610572806100fd6000396000f3fe608060405234801561001057600080fd5b5060043610610069576000357c01000000000000000000000000000000000000000000000000000000009004806338af3eed1461006e57806386d1a69f146100b8578063b91d4001146100c2578063fc0c546a146100e0575b600080fd5b61007661012a565b604051808273ffffffffffffffffffffffffffffffffffffffff1673ffffffffffffffffffffffffffffffffffffffff16815260200191505060405180910390f35b6100c0610154565b005b6100ca6102de565b6040518082815260200191505060405180910390f35b6100e86102e8565b604051808273ffffffffffffffffffffffffffffffffffffffff1673ffffffffffffffffffffffffffffffffffffffff16815260200191505060405180910390f35b6000600160009054906101000a900473ffffffffffffffffffffffffffffffffffffffff16905090565b600254421015151561016557600080fd5b60008060009054906101000a900473ffffffffffffffffffffffffffffffffffffffff1673ffffffffffffffffffffffffffffffffffffffff166370a08231306040518263ffffffff167c0100000000000000000000000000000000000000000000000000000000028152600401808273ffffffffffffffffffffffffffffffffffffffff1673ffffffffffffffffffffffffffffffffffffffff16815260200191505060206040518083038186803b15801561022157600080fd5b505afa158015610235573d6000803e3d6000fd5b505050506040513d602081101561024b57600080fd5b8101908080519060200190929190505050905060008111151561026d57600080fd5b6102db600160009054906101000a900473ffffffffffffffffffffffffffffffffffffffff16826000809054906101000a900473ffffffffffffffffffffffffffffffffffffffff1673ffffffffffffffffffffffffffffffffffffffff166103119092919063ffffffff16565b50565b6000600254905090565b60008060009054906101000a900473ffffffffffffffffffffffffffffffffffffffff16905090565b6103f9838473ffffffffffffffffffffffffffffffffffffffff1663a9059cbb90507c0100000000000000000000000000000000000000000000000000000000028484604051602401808373ffffffffffffffffffffffffffffffffffffffff1673ffffffffffffffffffffffffffffffffffffffff16815260200182815260200192505050604051602081830303815290604052907bffffffffffffffffffffffffffffffffffffffffffffffffffffffff19166020820180517bffffffffffffffffffffffffffffffffffffffffffffffffffffffff83818316178352505050506103fe565b505050565b61041d8273ffffffffffffffffffffffffffffffffffffffff16610533565b151561042857600080fd5b600060608373ffffffffffffffffffffffffffffffffffffffff16836040518082805190602001908083835b6020831015156104795780518252602082019150602081019050602083039250610454565b6001836020036101000a0380198251168184511680821785525050505050509050019150506000604051808303816000865af19150503d80600081146104db576040519150601f19603f3d011682016040523d82523d6000602084013e6104e0565b606091505b50915091508115156104f157600080fd5b60008151111561052d5780806020019051602081101561051057600080fd5b8101908080519060200190929190505050151561052c57600080fd5b5b50505050565b600080823b90506000811191505091905056fea165627a7a72305820a7678ca36d8ac9b414c819393dd62b8b5b1f9855f3e9a55abdb63e2cff3e13fe0029a165627a7a72305820fe2f0987791e3f8ba068421fb51280a753808c1c2ae25864cf7782ed0b1e41520029608060405234801561001057600080fd5b50604051602080610d7e8339810180604052602081101561003057600080fd5b8101908080519060200190929190505050336000806101000a81548173ffffffffffffffffffffffffffffffffffffffff021916908373ffffffffffffffffffffffffffffffffffffffff1602179055507f4101e71e974f68df5e9730cc223280b41654676bbb052cdcc735c3337e64d2d96000809054906101000a900473ffffffffffffffffffffffffffffffffffffffff16604051808273ffffffffffffffffffffffffffffffffffffffff1673ffffffffffffffffffffffffffffffffffffffff16815260200191505060405180910390a1600073ffffffffffffffffffffffffffffffffffffffff168173ffffffffffffffffffffffffffffffffffffffff161415151561014157600080fd5b80600260016101000a81548173ffffffffffffffffffffffffffffffffffffffff021916908373ffffffffffffffffffffffffffffffffffffffff1602179055506000600260006101000a81548160ff021916908360028111156101a157fe5b021790555050610bc8806101b66000396000f3fe6080604052600436106100b9576000357c0100000000000000000000000000000000000000000000000000000000900480638c52dc41116100815780638c52dc41146102375780639af6549a1461024e578063c19d93fb14610265578063c6dbdf611461029e578063e3a9db1a146102f5578063f340fa011461035a576100b9565b80632348238c146100be57806338af3eed1461010f57806343d726d61461016657806351cff8d91461017d578063685ca194146101ce575b600080fd5b3480156100ca57600080fd5b5061010d600480360360208110156100e157600080fd5b81019080803573ffffffffffffffffffffffffffffffffffffffff16906020019092919050505061039e565b005b34801561011b57600080fd5b506101246104fc565b604051808273ffffffffffffffffffffffffffffffffffffffff1673ffffffffffffffffffffffffffffffffffffffff16815260200191505060405180910390f35b34801561017257600080fd5b5061017b610526565b005b34801561018957600080fd5b506101cc600480360360208110156101a057600080fd5b81019080803573ffffffffffffffffffffffffffffffffffffffff169060200190929190505050610606565b005b3480156101da57600080fd5b5061021d600480360360208110156101f157600080fd5b81019080803573ffffffffffffffffffffffffffffffffffffffff169060200190929190505050610626565b604051808215151515815260200191505060405180910390f35b34801561024357600080fd5b5061024c610658565b005b34801561025a57600080fd5b50610263610739565b005b34801561027157600080fd5b5061027a6107ee565b6040518082600281111561028a57fe5b60ff16815260200191505060405180910390f35b3480156102aa57600080fd5b506102b3610805565b604051808273ffffffffffffffffffffffffffffffffffffffff1673ffffffffffffffffffffffffffffffffffffffff16815260200191505060405180910390f35b34801561030157600080fd5b506103446004803603602081101561031857600080fd5b81019080803573ffffffffffffffffffffffffffffffffffffffff16906020019092919050505061082e565b6040518082815260200191505060405180910390f35b61039c6004803603602081101561037057600080fd5b81019080803573ffffffffffffffffffffffffffffffffffffffff169060200190929190505050610877565b005b6000809054906101000a900473ffffffffffffffffffffffffffffffffffffffff1673ffffffffffffffffffffffffffffffffffffffff163373ffffffffffffffffffffffffffffffffffffffff161415156103f957600080fd5b600073ffffffffffffffffffffffffffffffffffffffff168173ffffffffffffffffffffffffffffffffffffffff161415151561043557600080fd5b806000806101000a81548173ffffffffffffffffffffffffffffffffffffffff021916908373ffffffffffffffffffffffffffffffffffffffff1602179055507f4101e71e974f68df5e9730cc223280b41654676bbb052cdcc735c3337e64d2d96000809054906101000a900473ffffffffffffffffffffffffffffffffffffffff16604051808273ffffffffffffffffffffffffffffffffffffffff1673ffffffffffffffffffffffffffffffffffffffff16815260200191505060405180910390a150565b6000600260019054906101000a900473ffffffffffffffffffffffffffffffffffffffff16905090565b6000809054906101000a900473ffffffffffffffffffffffffffffffffffffffff1673ffffffffffffffffffffffffffffffffffffffff163373ffffffffffffffffffffffffffffffffffffffff1614151561058157600080fd5b6000600281111561058e57fe5b600260009054906101000a900460ff1660028111156105a957fe5b1415156105b557600080fd5b60028060006101000a81548160ff021916908360028111156105d357fe5b02179055507f088672c3a6e342f7cd94a65ba63b79df24a8973927b4d05d803c44bbf787d12f60405160405180910390a1565b61060f81610626565b151561061a57600080fd5b610623816108b7565b50565b60006001600281111561063557fe5b600260009054906101000a900460ff16600281111561065057fe5b149050919050565b6000809054906101000a900473ffffffffffffffffffffffffffffffffffffffff1673ffffffffffffffffffffffffffffffffffffffff163373ffffffffffffffffffffffffffffffffffffffff161415156106b357600080fd5b600060028111156106c057fe5b600260009054906101000a900460ff1660028111156106db57fe5b1415156106e757600080fd5b6001600260006101000a81548160ff0219169083600281111561070657fe5b02179055507f599d8e5a83cffb867d051598c4d70e805d59802d8081c1c7d6dffc5b6aca2b8960405160405180910390a1565b60028081111561074557fe5b600260009054906101000a900460ff16600281111561076057fe5b14151561076c57600080fd5b600260019054906101000a900473ffffffffffffffffffffffffffffffffffffffff1673ffffffffffffffffffffffffffffffffffffffff166108fc3073ffffffffffffffffffffffffffffffffffffffff16319081150290604051600060405180830381858888f193505050501580156107eb573d6000803e3d6000fd5b50565b6000600260009054906101000a900460ff16905090565b60008060009054906101000a900473ffffffffffffffffffffffffffffffffffffffff16905090565b6000600160008373ffffffffffffffffffffffffffffffffffffffff1673ffffffffffffffffffffffffffffffffffffffff168152602001908152602001600020549050919050565b6000600281111561088457fe5b600260009054906101000a900460ff16600281111561089f57fe5b1415156108ab57600080fd5b6108b481610a34565b50565b6000809054906101000a900473ffffffffffffffffffffffffffffffffffffffff1673ffffffffffffffffffffffffffffffffffffffff163373ffffffffffffffffffffffffffffffffffffffff1614151561091257600080fd5b6000600160008373ffffffffffffffffffffffffffffffffffffffff1673ffffffffffffffffffffffffffffffffffffffff1681526020019081526020016000205490506000600160008473ffffffffffffffffffffffffffffffffffffffff1673ffffffffffffffffffffffffffffffffffffffff168152602001908152602001600020819055508173ffffffffffffffffffffffffffffffffffffffff166108fc829081150290604051600060405180830381858888f193505050501580156109e1573d6000803e3d6000fd5b508173ffffffffffffffffffffffffffffffffffffffff167f7084f5476618d8e60b11ef0d7d3f06914655adb8793e28ff7f018d4c76d505d5826040518082815260200191505060405180910390a25050565b6000809054906101000a900473ffffffffffffffffffffffffffffffffffffffff1673ffffffffffffffffffffffffffffffffffffffff163373ffffffffffffffffffffffffffffffffffffffff16141515610a8f57600080fd5b6000349050610ae681600160008573ffffffffffffffffffffffffffffffffffffffff1673ffffffffffffffffffffffffffffffffffffffff16815260200190815260200160002054610b7b90919063ffffffff16565b600160008473ffffffffffffffffffffffffffffffffffffffff1673ffffffffffffffffffffffffffffffffffffffff168152602001908152602001600020819055508173ffffffffffffffffffffffffffffffffffffffff167f2da466a7b24304f47e87fa2e1e5a81b9831ce54fec19055ce277ca2f39ba42c4826040518082815260200191505060405180910390a25050565b6000808284019050838110151515610b9257600080fd5b809150509291505056fea165627a7a7230582000b96ef1ed99dc0843db4a4bf239fde92bcddb229a9136a7dfdc6bcbc1f673080029",
  "source": "pragma solidity ^0.5.2;\n\nimport \"openzeppelin-solidity/contracts/crowdsale/Crowdsale.sol\";\nimport \"openzeppelin-solidity/contracts/crowdsale/emission/MintedCrowdsale.sol\";\nimport \"openzeppelin-solidity/contracts/crowdsale/validation/CappedCrowdsale.sol\";\nimport \"openzeppelin-solidity/contracts/crowdsale/validation/TimedCrowdsale.sol\";\nimport \"openzeppelin-solidity/contracts/crowdsale/distribution/RefundableCrowdsale.sol\";\nimport \"openzeppelin-solidity/contracts/crowdsale/validation/WhitelistCrowdsale.sol\";\nimport \"openzeppelin-solidity/contracts/token/ERC20/ERC20Pausable.sol\";\nimport \"openzeppelin-solidity/contracts/token/ERC20/ERC20Mintable.sol\";\nimport \"openzeppelin-solidity/contracts/token/ERC20/TokenTimelock.sol\";\n\ninterface IMinterRole {\n    function renounceMinter() external;\n}\n\ncontract KriptotrackersCrowdsale is Crowdsale,\n\tMintedCrowdsale,\n\tCappedCrowdsale,\n\tTimedCrowdsale,\n\tWhitelistCrowdsale,\n\tRefundableCrowdsale{\n\n\tuint256 public investorMinCap =  500000000000000000; //0.5 ether\n  \tuint256 public investorHardCap = 5000000000000000000; // 5 ether\n\tmapping(address => uint256) public contributions;\n\n\tenum CrowdsaleStage {PreICO,ICO}\n\tCrowdsaleStage public stage=CrowdsaleStage.PreICO;\n\tuint256 ico_rate=100;\n\tuint256 private currentRate;\n\n\tuint256 public max_emision=1000000*10**18;\n\tuint256 public tokenSaleTokens=650000*10**18;\n\tuint256 public bountiesTokens=100000*10**18;\n\tuint256 public fundationTokens=200000*10**18;\n\tuint256 public teamTokens=50000*10**18;\n\n\tuint256 public preICOTokenAmmount=300*10**18;\n\n\taddress public bountiesFund;\n\taddress public fundationFund;\n\taddress public teamFund;\n\taddress public postICOSaleAddress;\n\taddress payable public  postICOfundAddress;\n\n\tuint256 public releaseTime;\n\taddress public foundationTimelock;\n\n\tconstructor( \n\t\taddress payable _wallet, \n\t\tIERC20 _token,\n\t\tuint256 _rate,\n\t\tuint256 _cap,\n\t\tuint256 _openingTime,\n\t\tuint256 _closingTime,\n\t\tuint256 _goal,\n\t\tuint256 _releaseTime,\n\t\taddress _fundationFund,\n\t\taddress _bountiesFund,\n\t\taddress _teamFund) \n\n\t\tCrowdsale(_rate,_wallet,_token)\n\t\tMintedCrowdsale()\n\t\tCappedCrowdsale(_cap)\n\t\tTimedCrowdsale(_openingTime,_closingTime)\n\t\tRefundableCrowdsale(_goal)\n\t\tWhitelistCrowdsale()\n\n\t\tpublic{\n\t\t\trequire(_goal<=_cap);\n\t\t\tcurrentRate=_rate;\n\t\t\treleaseTime=_releaseTime;\n\t\t\tfundationFund=_fundationFund;\n\t\t\tbountiesFund=_bountiesFund;\n\t\t\tteamFund=_teamFund;\n\t\t\tpostICOfundAddress=_wallet;\n\t\t}\n\n\t\t/**\n\t \t* @dev Add multiple addresses to the whitelist\n\t \t* @param _addresses to add to the whitelist\n\t\t*/\n\t\tfunction addAddressesToWhitelist(address[] memory _addresses) public onlyWhitelistAdmin{\n\t\t\tfor(uint256 i=0;i<_addresses.length;i++){\n\t\t\t\taddWhitelisted(_addresses[i]);\n\t\t\t}\n\t\t}\n\n\t\t/**\n  \t\t* @dev Extend parent behavior requiring purchase to respect investor min/max funding cap.\n  \t\t* @param _beneficiary Token purchaser\n  \t\t* @param _weiAmount Amount of wei contributed\n\t\t*/\n\t\tfunction _preValidatePurchase(address _beneficiary, uint256 _weiAmount) internal view\n\t\t{\n\t        super._preValidatePurchase(_beneficiary, _weiAmount);\n\t        uint256 _existingContributions=contributions[_beneficiary];\n\t        uint256 _newContribution=_existingContributions.add(_weiAmount);\n\t        require (_weiAmount>=investorMinCap && _newContribution<=investorHardCap);\n\t    }\n\n\t    /**\n\t  \t\t* @dev Updates the investor contributions \n\t  \t\t* @param _beneficiary Token purchaser\n\t  \t\t* @param _weiAmount Amount of wei contributed\n\t\t*/\n\t    function _updatePurchasingState(address _beneficiary, uint256 _weiAmount) internal {\n\t        super._updatePurchasingState(_beneficiary, _weiAmount);\n\t        contributions[_beneficiary] = contributions[_beneficiary].add(_weiAmount);\n\t        \n\t        if(ERC20Mintable(address(token())).totalSupply()>=preICOTokenAmmount){\n\t        \tstage = CrowdsaleStage.ICO;\n\t        \tcurrentRate=ico_rate;\n\t        }\n\t    }\n\n\t\t/**\n\t     * The base rate function is overridden to revert, since this crowdsale doesn't use it, and\n\t     * all calls to it are a mistake.\n\t     */\n\t    function rate() public view returns (uint256) {\n\t        revert();\n\t    }\n\n\t\t/**\n\t     * @dev Returns the rate of tokens per wei at the current phase\n\t     * @return The number of tokens a buyer gets per wei at the current phase\n\t     */\n\t    function getCurrentRate() public view returns (uint256) {\n\t        if (!isOpen()) {\n\t            return 0;\n\t        }\n\n\t        return currentRate;\n\t    }\n\n\t    /**\n\t     * @dev Overrides parent method taking into account variable rate.\n\t     * @param weiAmount The value in wei to be converted into tokens\n\t     * @return The number of tokens _weiAmount wei will buy at present time\n\t     */\n\t    function _getTokenAmount(uint256 weiAmount) internal view returns (uint256) {\n\t        return currentRate.mul(weiAmount);\n\t    }\n\n\t    function _finalization() internal {\n        if(goalReached()){\n        \t//Enable tokens\n        \tERC20Pausable(address(token())).unpause();\n        \tERC20Mintable _mintableToken=ERC20Mintable(address(token()));\n\n        \t//Send remaining tokens for sale 10 per ETH\n        \tuint256 remainingTokens=tokenSaleTokens.sub(_mintableToken.totalSupply());\n\n        \tif(remainingTokens>0){\n\t        \tCrowdsale postICOSale=new Crowdsale(10,postICOfundAddress,token());\n\t        \tpostICOSaleAddress=address(postICOSale);\n\t        \t_mintableToken.mint(address(postICOSale),remainingTokens);\n        \t}\n\n        \t//Send fundation fund to 2 years timelock\n        \tTokenTimelock timelock = new TokenTimelock(token(), fundationFund, releaseTime);\n        \t_mintableToken.mint(address(timelock),fundationTokens);\n        \tfoundationTimelock=address(timelock);\n        \t\n        \t//Generate bounties tokens\n        \t_mintableToken.mint(bountiesFund,bountiesTokens);\n        \t//Generate Team tokens\n           \t_mintableToken.mint(teamFund,teamTokens);\n\n           \t//Renunce minting\n        \tIMinterRole(address(token())).renounceMinter();\n\n        }\n        super._finalization();\n    }\n}",
  "sourcePath": "/home/xavier/Desktop/ico_kts/contracts/KriptotrackersCrowdsale.sol",
  "compiler": {
    "name": "solc",
    "version": "0.5.2+commit.1df8f40c.Emscripten.clang"
  },
  "schemaVersion": "3.0.6",
  "updatedAt": "2019-06-06T19:21:16.398Z",
  "devdoc": {
    "methods": {
      "addAddressesToWhitelist(address[])": {
        "details": "Add multiple addresses to the whitelist",
        "params": {
          "_addresses": "to add to the whitelist"
        }
      },
      "buyTokens(address)": {
        "details": "low level token purchase ***DO NOT OVERRIDE*** This function has a non-reentrancy guard, so it shouldn't be called by another `nonReentrant` function.",
        "params": {
          "beneficiary": "Recipient of the token purchase"
        }
      },
      "cap()": {
        "return": "the cap of the crowdsale."
      },
      "capReached()": {
        "details": "Checks whether the cap has been reached.",
        "return": "Whether the cap was reached"
      },
      "claimRefund(address)": {
        "details": "Investors can claim refunds here if crowdsale is unsuccessful",
        "params": {
          "refundee": "Whose refund will be claimed."
        }
      },
      "closingTime()": {
        "return": "the crowdsale closing time."
      },
      "finalize()": {
        "details": "Must be called after crowdsale ends, to do some extra finalization work. Calls the contract's finalization function."
      },
      "finalized()": {
        "return": "true if the crowdsale is finalized, false otherwise."
      },
      "getCurrentRate()": {
        "details": "Returns the rate of tokens per wei at the current phase",
        "return": "The number of tokens a buyer gets per wei at the current phase"
      },
      "goal()": {
        "return": "minimum amount of funds to be raised in wei."
      },
      "goalReached()": {
        "details": "Checks whether funding goal was reached.",
        "return": "Whether funding goal was reached"
      },
      "hasClosed()": {
        "details": "Checks whether the period in which the crowdsale is open has already elapsed.",
        "return": "Whether crowdsale period has elapsed"
      },
      "isOpen()": {
        "return": "true if the crowdsale is open, false otherwise."
      },
      "openingTime()": {
        "return": "the crowdsale opening time."
      },
      "token()": {
        "return": "the token being sold."
      },
      "wallet()": {
        "return": "the address where funds are collected."
      },
      "weiRaised()": {
        "return": "the amount of wei raised."
      }
    }
  },
  "userdoc": {
    "methods": {
      "rate()": {
        "notice": "The base rate function is overridden to revert, since this crowdsale doesn't use it, and all calls to it are a mistake."
      }
    }
  }
}